{
  "_format": "hh-sol-artifact-1",
  "contractName": "PositionManager",
  "sourceName": "contracts/hardhat-uniswap/PositionManager.sol",
  "abi": [
    {
      "inputs": [
        {
          "internalType": "address",
          "name": "_poolManger",
          "type": "address"
        }
      ],
      "stateMutability": "nonpayable",
      "type": "constructor"
    },
    {
      "inputs": [
        {
          "internalType": "address",
          "name": "sender",
          "type": "address"
        },
        {
          "internalType": "uint256",
          "name": "tokenId",
          "type": "uint256"
        },
        {
          "internalType": "address",
          "name": "owner",
          "type": "address"
        }
      ],
      "name": "ERC721IncorrectOwner",
      "type": "error"
    },
    {
      "inputs": [
        {
          "internalType": "address",
          "name": "operator",
          "type": "address"
        },
        {
          "internalType": "uint256",
          "name": "tokenId",
          "type": "uint256"
        }
      ],
      "name": "ERC721InsufficientApproval",
      "type": "error"
    },
    {
      "inputs": [
        {
          "internalType": "address",
          "name": "approver",
          "type": "address"
        }
      ],
      "name": "ERC721InvalidApprover",
      "type": "error"
    },
    {
      "inputs": [
        {
          "internalType": "address",
          "name": "operator",
          "type": "address"
        }
      ],
      "name": "ERC721InvalidOperator",
      "type": "error"
    },
    {
      "inputs": [
        {
          "internalType": "address",
          "name": "owner",
          "type": "address"
        }
      ],
      "name": "ERC721InvalidOwner",
      "type": "error"
    },
    {
      "inputs": [
        {
          "internalType": "address",
          "name": "receiver",
          "type": "address"
        }
      ],
      "name": "ERC721InvalidReceiver",
      "type": "error"
    },
    {
      "inputs": [
        {
          "internalType": "address",
          "name": "sender",
          "type": "address"
        }
      ],
      "name": "ERC721InvalidSender",
      "type": "error"
    },
    {
      "inputs": [
        {
          "internalType": "uint256",
          "name": "tokenId",
          "type": "uint256"
        }
      ],
      "name": "ERC721NonexistentToken",
      "type": "error"
    },
    {
      "anonymous": false,
      "inputs": [
        {
          "indexed": true,
          "internalType": "address",
          "name": "owner",
          "type": "address"
        },
        {
          "indexed": true,
          "internalType": "address",
          "name": "approved",
          "type": "address"
        },
        {
          "indexed": true,
          "internalType": "uint256",
          "name": "tokenId",
          "type": "uint256"
        }
      ],
      "name": "Approval",
      "type": "event"
    },
    {
      "anonymous": false,
      "inputs": [
        {
          "indexed": true,
          "internalType": "address",
          "name": "owner",
          "type": "address"
        },
        {
          "indexed": true,
          "internalType": "address",
          "name": "operator",
          "type": "address"
        },
        {
          "indexed": false,
          "internalType": "bool",
          "name": "approved",
          "type": "bool"
        }
      ],
      "name": "ApprovalForAll",
      "type": "event"
    },
    {
      "anonymous": false,
      "inputs": [
        {
          "indexed": true,
          "internalType": "address",
          "name": "from",
          "type": "address"
        },
        {
          "indexed": true,
          "internalType": "address",
          "name": "to",
          "type": "address"
        },
        {
          "indexed": true,
          "internalType": "uint256",
          "name": "tokenId",
          "type": "uint256"
        }
      ],
      "name": "Transfer",
      "type": "event"
    },
    {
      "inputs": [
        {
          "internalType": "address",
          "name": "to",
          "type": "address"
        },
        {
          "internalType": "uint256",
          "name": "tokenId",
          "type": "uint256"
        }
      ],
      "name": "approve",
      "outputs": [],
      "stateMutability": "nonpayable",
      "type": "function"
    },
    {
      "inputs": [
        {
          "internalType": "address",
          "name": "owner",
          "type": "address"
        }
      ],
      "name": "balanceOf",
      "outputs": [
        {
          "internalType": "uint256",
          "name": "",
          "type": "uint256"
        }
      ],
      "stateMutability": "view",
      "type": "function"
    },
    {
      "inputs": [
        {
          "internalType": "uint256",
          "name": "positionId",
          "type": "uint256"
        }
      ],
      "name": "burn",
      "outputs": [
        {
          "internalType": "uint256",
          "name": "amount0",
          "type": "uint256"
        },
        {
          "internalType": "uint256",
          "name": "amount1",
          "type": "uint256"
        }
      ],
      "stateMutability": "nonpayable",
      "type": "function"
    },
    {
      "inputs": [
        {
          "internalType": "uint256",
          "name": "positionId",
          "type": "uint256"
        },
        {
          "internalType": "address",
          "name": "recipient",
          "type": "address"
        }
      ],
      "name": "collect",
      "outputs": [
        {
          "internalType": "uint256",
          "name": "amount0",
          "type": "uint256"
        },
        {
          "internalType": "uint256",
          "name": "amount1",
          "type": "uint256"
        }
      ],
      "stateMutability": "nonpayable",
      "type": "function"
    },
    {
      "inputs": [
        {
          "internalType": "uint256",
          "name": "tokenId",
          "type": "uint256"
        }
      ],
      "name": "getApproved",
      "outputs": [
        {
          "internalType": "address",
          "name": "",
          "type": "address"
        }
      ],
      "stateMutability": "view",
      "type": "function"
    },
    {
      "inputs": [
        {
          "internalType": "uint256[]",
          "name": "positionId",
          "type": "uint256[]"
        }
      ],
      "name": "getPositionInfo",
      "outputs": [
        {
          "components": [
            {
              "internalType": "address",
              "name": "owner",
              "type": "address"
            },
            {
              "internalType": "address",
              "name": "token0",
              "type": "address"
            },
            {
              "internalType": "address",
              "name": "token1",
              "type": "address"
            },
            {
              "internalType": "uint32",
              "name": "index",
              "type": "uint32"
            },
            {
              "internalType": "uint24",
              "name": "fee",
              "type": "uint24"
            },
            {
              "internalType": "uint128",
              "name": "liquidity",
              "type": "uint128"
            },
            {
              "internalType": "int24",
              "name": "tickLower",
              "type": "int24"
            },
            {
              "internalType": "int24",
              "name": "tickUpper",
              "type": "int24"
            },
            {
              "internalType": "uint128",
              "name": "tokensOwed0",
              "type": "uint128"
            },
            {
              "internalType": "uint128",
              "name": "tokensOwed1",
              "type": "uint128"
            },
            {
              "internalType": "uint256",
              "name": "feeGrowthInside0LastX128",
              "type": "uint256"
            },
            {
              "internalType": "uint256",
              "name": "feeGrowthInside1LastX128",
              "type": "uint256"
            }
          ],
          "internalType": "struct IPositionManager.PositionInfo[]",
          "name": "positionInfo",
          "type": "tuple[]"
        }
      ],
      "stateMutability": "view",
      "type": "function"
    },
    {
      "inputs": [],
      "name": "getSender",
      "outputs": [
        {
          "internalType": "address",
          "name": "",
          "type": "address"
        }
      ],
      "stateMutability": "view",
      "type": "function"
    },
    {
      "inputs": [
        {
          "internalType": "address",
          "name": "owner",
          "type": "address"
        },
        {
          "internalType": "address",
          "name": "operator",
          "type": "address"
        }
      ],
      "name": "isApprovedForAll",
      "outputs": [
        {
          "internalType": "bool",
          "name": "",
          "type": "bool"
        }
      ],
      "stateMutability": "view",
      "type": "function"
    },
    {
      "inputs": [
        {
          "components": [
            {
              "internalType": "address",
              "name": "token0",
              "type": "address"
            },
            {
              "internalType": "address",
              "name": "token1",
              "type": "address"
            },
            {
              "internalType": "uint32",
              "name": "index",
              "type": "uint32"
            },
            {
              "internalType": "uint256",
              "name": "amount0Desired",
              "type": "uint256"
            },
            {
              "internalType": "uint256",
              "name": "amount1Desired",
              "type": "uint256"
            },
            {
              "internalType": "address",
              "name": "recipient",
              "type": "address"
            },
            {
              "internalType": "uint256",
              "name": "deadline",
              "type": "uint256"
            }
          ],
          "internalType": "struct IPositionManager.MintParams",
          "name": "params",
          "type": "tuple"
        }
      ],
      "name": "mint",
      "outputs": [
        {
          "internalType": "uint256",
          "name": "positionId",
          "type": "uint256"
        },
        {
          "internalType": "uint128",
          "name": "liquidity",
          "type": "uint128"
        },
        {
          "internalType": "uint256",
          "name": "amount0",
          "type": "uint256"
        },
        {
          "internalType": "uint256",
          "name": "amount1",
          "type": "uint256"
        }
      ],
      "stateMutability": "payable",
      "type": "function"
    },
    {
      "inputs": [
        {
          "internalType": "uint256",
          "name": "amount0",
          "type": "uint256"
        },
        {
          "internalType": "uint256",
          "name": "amount1",
          "type": "uint256"
        },
        {
          "internalType": "bytes",
          "name": "data",
          "type": "bytes"
        }
      ],
      "name": "mintCallback",
      "outputs": [],
      "stateMutability": "nonpayable",
      "type": "function"
    },
    {
      "inputs": [],
      "name": "name",
      "outputs": [
        {
          "internalType": "string",
          "name": "",
          "type": "string"
        }
      ],
      "stateMutability": "view",
      "type": "function"
    },
    {
      "inputs": [
        {
          "internalType": "uint256",
          "name": "tokenId",
          "type": "uint256"
        }
      ],
      "name": "ownerOf",
      "outputs": [
        {
          "internalType": "address",
          "name": "",
          "type": "address"
        }
      ],
      "stateMutability": "view",
      "type": "function"
    },
    {
      "inputs": [],
      "name": "poolManager",
      "outputs": [
        {
          "internalType": "contract IPoolManager",
          "name": "",
          "type": "address"
        }
      ],
      "stateMutability": "view",
      "type": "function"
    },
    {
      "inputs": [
        {
          "internalType": "uint256",
          "name": "",
          "type": "uint256"
        }
      ],
      "name": "positions",
      "outputs": [
        {
          "internalType": "address",
          "name": "owner",
          "type": "address"
        },
        {
          "internalType": "address",
          "name": "token0",
          "type": "address"
        },
        {
          "internalType": "address",
          "name": "token1",
          "type": "address"
        },
        {
          "internalType": "uint32",
          "name": "index",
          "type": "uint32"
        },
        {
          "internalType": "uint24",
          "name": "fee",
          "type": "uint24"
        },
        {
          "internalType": "uint128",
          "name": "liquidity",
          "type": "uint128"
        },
        {
          "internalType": "int24",
          "name": "tickLower",
          "type": "int24"
        },
        {
          "internalType": "int24",
          "name": "tickUpper",
          "type": "int24"
        },
        {
          "internalType": "uint128",
          "name": "tokensOwed0",
          "type": "uint128"
        },
        {
          "internalType": "uint128",
          "name": "tokensOwed1",
          "type": "uint128"
        },
        {
          "internalType": "uint256",
          "name": "feeGrowthInside0LastX128",
          "type": "uint256"
        },
        {
          "internalType": "uint256",
          "name": "feeGrowthInside1LastX128",
          "type": "uint256"
        }
      ],
      "stateMutability": "view",
      "type": "function"
    },
    {
      "inputs": [
        {
          "internalType": "address",
          "name": "from",
          "type": "address"
        },
        {
          "internalType": "address",
          "name": "to",
          "type": "address"
        },
        {
          "internalType": "uint256",
          "name": "tokenId",
          "type": "uint256"
        }
      ],
      "name": "safeTransferFrom",
      "outputs": [],
      "stateMutability": "nonpayable",
      "type": "function"
    },
    {
      "inputs": [
        {
          "internalType": "address",
          "name": "from",
          "type": "address"
        },
        {
          "internalType": "address",
          "name": "to",
          "type": "address"
        },
        {
          "internalType": "uint256",
          "name": "tokenId",
          "type": "uint256"
        },
        {
          "internalType": "bytes",
          "name": "data",
          "type": "bytes"
        }
      ],
      "name": "safeTransferFrom",
      "outputs": [],
      "stateMutability": "nonpayable",
      "type": "function"
    },
    {
      "inputs": [
        {
          "internalType": "address",
          "name": "operator",
          "type": "address"
        },
        {
          "internalType": "bool",
          "name": "approved",
          "type": "bool"
        }
      ],
      "name": "setApprovalForAll",
      "outputs": [],
      "stateMutability": "nonpayable",
      "type": "function"
    },
    {
      "inputs": [
        {
          "internalType": "bytes4",
          "name": "interfaceId",
          "type": "bytes4"
        }
      ],
      "name": "supportsInterface",
      "outputs": [
        {
          "internalType": "bool",
          "name": "",
          "type": "bool"
        }
      ],
      "stateMutability": "view",
      "type": "function"
    },
    {
      "inputs": [],
      "name": "symbol",
      "outputs": [
        {
          "internalType": "string",
          "name": "",
          "type": "string"
        }
      ],
      "stateMutability": "view",
      "type": "function"
    },
    {
      "inputs": [
        {
          "internalType": "uint256",
          "name": "tokenId",
          "type": "uint256"
        }
      ],
      "name": "tokenURI",
      "outputs": [
        {
          "internalType": "string",
          "name": "",
          "type": "string"
        }
      ],
      "stateMutability": "view",
      "type": "function"
    },
    {
      "inputs": [
        {
          "internalType": "address",
          "name": "from",
          "type": "address"
        },
        {
          "internalType": "address",
          "name": "to",
          "type": "address"
        },
        {
          "internalType": "uint256",
          "name": "tokenId",
          "type": "uint256"
        }
      ],
      "name": "transferFrom",
      "outputs": [],
      "stateMutability": "nonpayable",
      "type": "function"
    }
  ],
  "bytecode": "0x6080604052600780546001600160b01b03191660011790553480156200002457600080fd5b5060405162002e4f38038062002e4f8339810160408190526200004791620000d6565b6040518060400160405280600f81526020016e2baa2329bbb0b82837b9b4ba34b7b760891b815250604051806040016040528060048152602001630575446560e41b81525081600090816200009d9190620001af565b506001620000ac8282620001af565b5050600680546001600160a01b0319166001600160a01b039390931692909217909155506200027b565b600060208284031215620000e957600080fd5b81516001600160a01b03811681146200010157600080fd5b9392505050565b634e487b7160e01b600052604160045260246000fd5b600181811c908216806200013357607f821691505b6020821081036200015457634e487b7160e01b600052602260045260246000fd5b50919050565b601f821115620001aa576000816000526020600020601f850160051c81016020861015620001855750805b601f850160051c820191505b81811015620001a65782815560010162000191565b5050505b505050565b81516001600160401b03811115620001cb57620001cb62000108565b620001e381620001dc84546200011e565b846200015a565b602080601f8311600181146200021b5760008415620002025750858301515b600019600386901b1c1916600185901b178555620001a6565b600085815260208120601f198616915b828110156200024c578886015182559484019460019091019084016200022b565b50858210156200026b5787850151600019600388901b60f8161c191681555b5050505050600190811b01905550565b612bc4806200028b6000396000f3fe60806040526004361061012a5760003560e01c80636352211e116100ab5780639f382e9b1161006f5780639f382e9b14610419578063a22cb46514610439578063b88d4fde14610459578063c87b56dd14610479578063dc4c90d314610499578063e985e9c5146104b957600080fd5b80636352211e146102d157806370a08231146102f15780638d3c100a1461031f57806395d89b411461033f57806399fbab881461035457600080fd5b80632c6cc6c7116100f25780632c6cc6c71461020057806342842e0e1461023b57806342966c681461025b5780635a5e7e0d146102905780635e01eb5a146102be57600080fd5b806301ffc9a71461012f57806306fdde0314610164578063081812fc14610186578063095ea7b3146101be57806323b872dd146101e0575b600080fd5b34801561013b57600080fd5b5061014f61014a36600461224f565b6104d9565b60405190151581526020015b60405180910390f35b34801561017057600080fd5b5061017961052b565b60405161015b91906122bc565b34801561019257600080fd5b506101a66101a13660046122cf565b6105bd565b6040516001600160a01b03909116815260200161015b565b3480156101ca57600080fd5b506101de6101d93660046122fd565b6105e6565b005b3480156101ec57600080fd5b506101de6101fb366004612329565b6105f5565b61021361020e36600461236a565b610685565b604080519485526001600160801b03909316602085015291830152606082015260800161015b565b34801561024757600080fd5b506101de610256366004612329565b610e5b565b34801561026757600080fd5b5061027b6102763660046122cf565b610e7b565b6040805192835260208301919091520161015b565b34801561029c57600080fd5b506102b16102ab3660046123c9565b50606090565b60405161015b919061246f565b3480156102ca57600080fd5b50336101a6565b3480156102dd57600080fd5b506101a66102ec3660046122cf565b611181565b3480156102fd57600080fd5b5061031161030c366004612575565b61118c565b60405190815260200161015b565b34801561032b57600080fd5b5061027b61033a366004612592565b6111d4565b34801561034b57600080fd5b50610179611395565b34801561036057600080fd5b5061040161036f3660046122cf565b6008602052600090815260409020805460018201546002808401546003850154600486015460058701546006909701546001600160a01b039687169795871696841695600160a01b850463ffffffff1695600160c01b90950462ffffff16946001600160801b0380861695600160801b808204840b96600160981b90920490930b94828216949390910490911691908c565b60405161015b9c9b9a999897969594939291906125c2565b34801561042557600080fd5b506101de610434366004612663565b6113a4565b34801561044557600080fd5b506101de6104543660046126f1565b61159f565b34801561046557600080fd5b506101de61047436600461271f565b6115aa565b34801561048557600080fd5b506101796104943660046122cf565b6115c2565b3480156104a557600080fd5b506006546101a6906001600160a01b031681565b3480156104c557600080fd5b5061014f6104d43660046127e3565b611637565b60006001600160e01b031982166380ac58cd60e01b148061050a57506001600160e01b03198216635b5e139f60e01b145b8061052557506301ffc9a760e01b6001600160e01b03198316145b92915050565b60606000805461053a90612811565b80601f016020809104026020016040519081016040528092919081815260200182805461056690612811565b80156105b35780601f10610588576101008083540402835291602001916105b3565b820191906000526020600020905b81548152906001019060200180831161059657829003601f168201915b5050505050905090565b60006105c882611665565b506000828152600460205260409020546001600160a01b0316610525565b6105f182823361169e565b5050565b6001600160a01b03821661062457604051633250574960e11b8152600060048201526024015b60405180910390fd5b60006106318383336116ab565b9050836001600160a01b0316816001600160a01b03161461067f576040516364283d7b60e01b81526001600160a01b038086166004830152602482018490528216604482015260640161061b565b50505050565b600080808060c0850135804211156106d55760405162461bcd60e51b8152602060048201526013602482015272151c985b9cd858dd1a5bdb881d1bdbc81bdb19606a1b604482015260640161061b565b6006546000906001600160a01b03166371c54fc96106f660208a018a612575565b61070660408b0160208c01612575565b61071660608c0160408d01612859565b6040518463ffffffff1660e01b815260040161073493929190612874565b602060405180830381865afa158015610751573d6000803e3d6000fd5b505050506040513d601f19601f82011682018060405250810190610775919061289d565b905060008190506000816001600160a01b0316638db791d26040518163ffffffff1660e01b8152600401602060405180830381865afa1580156107bc573d6000803e3d6000fd5b505050506040513d601f19601f820116820180604052508101906107e0919061289d565b9050600061084e836001600160a01b03166359c4f9056040518163ffffffff1660e01b8152600401602060405180830381865afa158015610825573d6000803e3d6000fd5b505050506040513d601f19601f8201168201806040525081019061084991906128ba565b6117a4565b90506000610893846001600160a01b03166355b812a86040518163ffffffff1660e01b8152600401602060405180830381865afa158015610825573d6000803e3d6000fd5b90506108aa8383838e606001358f60800135611a5f565b985060006108bb60208d018d612575565b6108cb60408e0160208f01612575565b8d60400160208101906108de9190612859565b604080516001600160a01b039485166020820152939092169183019190915263ffffffff16606082015233608082015260a00160408051601f19818403018152908290526392f026ad60e01b825291506001600160a01b038616906392f026ad906109519030908e9086906004016128dd565b60408051808303816000875af115801561096f573d6000803e3d6000fd5b505050506040513d601f19601f820116820180604052508101906109939190612910565b90995097506109f96109ab60c08e0160a08f01612575565b600780546001600160b01b03169060006109c48361294a565b91906101000a8154816001600160b01b0302191690836001600160b01b031602179055506001600160b01b03169c508c611b23565b6040516316c1973960e01b815230600482015260009081906001600160a01b038816906316c197399060240160a060405180830381865afa158015610a42573d6000803e3d6000fd5b505050506040513d601f19601f82011682018060405250810190610a66919061298f565b505092509250506040518061018001604052808f60a0016020810190610a8c9190612575565b6001600160a01b031681526020018f6000016020810190610aad9190612575565b6001600160a01b031681526020018f6020016020810190610ace9190612575565b6001600160a01b031681526020018f6040016020810190610aef9190612859565b63ffffffff168152602001886001600160a01b031663ddca3f436040518163ffffffff1660e01b8152600401602060405180830381865afa158015610b38573d6000803e3d6000fd5b505050506040513d601f19601f82011682018060405250810190610b5c91906129e6565b62ffffff1681526020018d6001600160801b03168152602001886001600160a01b03166359c4f9056040518163ffffffff1660e01b8152600401602060405180830381865afa158015610bb3573d6000803e3d6000fd5b505050506040513d601f19601f82011682018060405250810190610bd791906128ba565b60020b8152602001886001600160a01b03166355b812a86040518163ffffffff1660e01b8152600401602060405180830381865afa158015610c1d573d6000803e3d6000fd5b505050506040513d601f19601f82011682018060405250810190610c4191906128ba565b60020b815260200160006001600160801b0316815260200160006001600160801b0316815260200183815260200182815250600860008f815260200190815260200160002060008201518160000160006101000a8154816001600160a01b0302191690836001600160a01b0316021790555060208201518160010160006101000a8154816001600160a01b0302191690836001600160a01b0316021790555060408201518160020160006101000a8154816001600160a01b0302191690836001600160a01b0316021790555060608201518160020160146101000a81548163ffffffff021916908363ffffffff16021790555060808201518160020160186101000a81548162ffffff021916908362ffffff16021790555060a08201518160030160006101000a8154816001600160801b0302191690836001600160801b0316021790555060c08201518160030160106101000a81548162ffffff021916908360020b62ffffff16021790555060e08201518160030160136101000a81548162ffffff021916908360020b62ffffff1602179055506101008201518160040160006101000a8154816001600160801b0302191690836001600160801b031602179055506101208201518160040160106101000a8154816001600160801b0302191690836001600160801b03160217905550610140820151816005015561016082015181600601559050505050505050505050509193509193565b610e76838383604051806020016040528060008152506115aa565b505050565b600080826000610e8a82611181565b9050610e97813384611b88565b610ed25760405162461bcd60e51b815260206004820152600c60248201526b139bdd08185c1c1c9bdd995960a21b604482015260640161061b565b60008581526008602052604080822060038101546006546001830154600284015494516371c54fc960e01b815293956001600160801b039093169492936001600160a01b03928316936371c54fc993610f429381169290821691600160a01b900463ffffffff1690600401612874565b602060405180830381865afa158015610f5f573d6000803e3d6000fd5b505050506040513d601f19601f82011682018060405250810190610f83919061289d565b6040516390bc169360e01b81526001600160801b038416600482015290915081906001600160a01b038216906390bc16939060240160408051808303816000875af1158015610fd6573d6000803e3d6000fd5b505050506040513d601f19601f82011682018060405250810190610ffa9190612910565b6040516316c1973960e01b8152306004820152919950975060009081906001600160a01b038416906316c197399060240160a060405180830381865afa158015611048573d6000803e3d6000fd5b505050506040513d601f19601f8201168201806040525081019061106c919061298f565b5050925092505061109e8660050154836110869190612a0b565b60038801546001600160801b0316600160801b611bee565b6110a8908b612a1e565b6004870180546000906110c59084906001600160801b0316612a1e565b92506101000a8154816001600160801b0302191690836001600160801b031602179055506110fc8660060154826110869190612a0b565b611106908a612a1e565b60048701805460109061112a908490600160801b90046001600160801b0316612a1e565b82546001600160801b039182166101009390930a9283029190920219909116179055506005860191909155600685015550505060030180546fffffffffffffffffffffffffffffffff191690555091939092509050565b600061052582611665565b60006001600160a01b0382166111b8576040516322718ad960e21b81526000600482015260240161061b565b506001600160a01b031660009081526003602052604090205490565b6000808360006111e382611181565b90506111f0813384611b88565b61122b5760405162461bcd60e51b815260206004820152600c60248201526b139bdd08185c1c1c9bdd995960a21b604482015260640161061b565b600654600087815260086020526040808220600181015460029091015491516371c54fc960e01b815292936001600160a01b03908116936371c54fc99361128993831692811691600160a01b90910463ffffffff1690600401612874565b602060405180830381865afa1580156112a6573d6000803e3d6000fd5b505050506040513d601f19601f820116820180604052508101906112ca919061289d565b6000888152600860205260409081902060049081015491516360d49d5360e01b81526001600160a01b038a8116928201929092526001600160801b038084166024830152600160801b909304909216604483015291925082918216906360d49d539060640160408051808303816000875af115801561134d573d6000803e3d6000fd5b505050506040513d601f19601f820116820180604052508101906113719190612a45565b6001600160801b03918216975016945061138a88611c90565b505050509250929050565b60606001805461053a90612811565b60008080806113b585870187612a78565b6006546040516371c54fc960e01b815294985092965090945092506000916001600160a01b03909116906371c54fc9906113f790889088908890600401612874565b602060405180830381865afa158015611414573d6000803e3d6000fd5b505050506040513d601f19601f82011682018060405250810190611438919061289d565b90506001600160a01b03811633146114925760405162461bcd60e51b815260206004820152601760248201527f496e76616c69642063616c6c6261636b2063616c6c6572000000000000000000604482015260640161061b565b8815611513576040516323b872dd60e01b81526001600160a01b038381166004830152336024830152604482018b90528616906323b872dd906064016020604051808303816000875af11580156114ed573d6000803e3d6000fd5b505050506040513d601f19601f820116820180604052508101906115119190612ad2565b505b8715611594576040516323b872dd60e01b81526001600160a01b038381166004830152336024830152604482018a90528516906323b872dd906064016020604051808303816000875af115801561156e573d6000803e3d6000fd5b505050506040513d601f19601f820116820180604052508101906115929190612ad2565b505b505050505050505050565b6105f1338383611ccb565b6115b58484846105f5565b61067f3385858585611d6a565b60606115cd82611665565b5060006115e560408051602081019091526000815290565b905060008151116116055760405180602001604052806000815250611630565b8061160f84611e95565b604051602001611620929190612aef565b6040516020818303038152906040525b9392505050565b6001600160a01b03918216600090815260056020908152604080832093909416825291909152205460ff1690565b6000818152600260205260408120546001600160a01b03168061052557604051637e27328960e01b81526004810184905260240161061b565b610e768383836001611f28565b6000828152600260205260408120546001600160a01b03908116908316156116d8576116d881848661202e565b6001600160a01b03811615611716576116f5600085600080611f28565b6001600160a01b038116600090815260036020526040902080546000190190555b6001600160a01b03851615611745576001600160a01b0385166000908152600360205260409020805460010190555b60008481526002602052604080822080546001600160a01b0319166001600160a01b0389811691821790925591518793918516917fddf252ad1be2c89b69c2b068fc378daa952ba7f163c4a11628f55a4df523b3ef91a4949350505050565b60020b600060ff82901d80830118620d89e88111156117ce576117ce6345c3193d60e11b84612092565b7001fffcb933bd6fad37aa2d162d1a5940016001821602600160801b18600282161561180a576ffff97272373d413259a46990580e213a0260801c5b6004821615611829576ffff2e50f5f656932ef12357cf3c7fdcc0260801c5b6008821615611848576fffe5caca7e10e4e61c3624eaa0941cd00260801c5b6010821615611867576fffcb9843d60f6159c9db58835c9266440260801c5b6020821615611886576fff973b41fa98c081472e6896dfb254c00260801c5b60408216156118a5576fff2ea16466c96a3843ec78b326b528610260801c5b60808216156118c4576ffe5dee046a99a2a811c461f1969c30530260801c5b6101008216156118e4576ffcbe86c7900a88aedcffc83b479aa3a40260801c5b610200821615611904576ff987a7253ac413176f2b074cf7815e540260801c5b610400821615611924576ff3392b0822b70005940c7a398e4b70f30260801c5b610800821615611944576fe7159475a2c29b7443b29c7fa6e889d90260801c5b611000821615611964576fd097f3bdfd2022b8845ad8f792aa58250260801c5b612000821615611984576fa9f746462d870fdf8a65dc1f90e061e50260801c5b6140008216156119a4576f70d869a156d2a1b890bb3df62baf32f70260801c5b6180008216156119c4576f31be135f97d08fd981231505542fcfa60260801c5b620100008216156119e5576f09aa508b5b7a84e1c677de54f3e99bc90260801c5b62020000821615611a05576e5d6af8dedb81196699c329225ee6040260801c5b62040000821615611a24576d2216e584f5fa1ea926041bedfe980260801c5b62080000821615611a41576b048a170391f7dc42444e8fa20260801c5b6000841315611a4f57600019045b63ffffffff0160201c9392505050565b6000836001600160a01b0316856001600160a01b03161115611a7f579293925b846001600160a01b0316866001600160a01b031611611aaa57611aa38585856120a3565b9050611b1a565b836001600160a01b0316866001600160a01b03161015611b0c576000611ad18786866120a3565b90506000611ae087898661210d565b9050806001600160801b0316826001600160801b031610611b015780611b03565b815b92505050611b1a565b611b1785858461210d565b90505b95945050505050565b6001600160a01b038216611b4d57604051633250574960e11b81526000600482015260240161061b565b6000611b5b838360006116ab565b90506001600160a01b03811615610e76576040516339e3563760e11b81526000600482015260240161061b565b60006001600160a01b03831615801590611be65750826001600160a01b0316846001600160a01b03161480611bc25750611bc28484611637565b80611be657506000828152600460205260409020546001600160a01b038481169116145b949350505050565b60008383028160001985870982811083820303915050808411611c1057600080fd5b80600003611c2357508290049050611630565b6000848688096000868103871696879004966002600389028118808a02820302808a02820302808a02820302808a02820302808a02820302808a02909103029181900381900460010186841190950394909402919094039290920491909117919091029150509392505050565b6000611c9f60008360006116ab565b90506001600160a01b0381166105f157604051637e27328960e01b81526004810183905260240161061b565b6001600160a01b038216611cfd57604051630b61174360e31b81526001600160a01b038316600482015260240161061b565b6001600160a01b03838116600081815260056020908152604080832094871680845294825291829020805460ff191686151590811790915591519182527f17307eab39ab6107e8899845ad3d59bd9653f200f220920489ca2b5937696c31910160405180910390a3505050565b6001600160a01b0383163b15611e8e57604051630a85bd0160e11b81526001600160a01b0384169063150b7a0290611dac908890889087908790600401612b1e565b6020604051808303816000875af1925050508015611de7575060408051601f3d908101601f19168201909252611de491810190612b51565b60015b611e50573d808015611e15576040519150601f19603f3d011682016040523d82523d6000602084013e611e1a565b606091505b508051600003611e4857604051633250574960e11b81526001600160a01b038516600482015260240161061b565b805181602001fd5b6001600160e01b03198116630a85bd0160e11b14611e8c57604051633250574960e11b81526001600160a01b038516600482015260240161061b565b505b5050505050565b60606000611ea283612143565b600101905060008167ffffffffffffffff811115611ec257611ec2612382565b6040519080825280601f01601f191660200182016040528015611eec576020820181803683370190505b5090508181016020015b600019016f181899199a1a9b1b9c1cb0b131b232b360811b600a86061a8153600a8504945084611ef657509392505050565b8080611f3c57506001600160a01b03821615155b15611ffe576000611f4c84611665565b90506001600160a01b03831615801590611f785750826001600160a01b0316816001600160a01b031614155b8015611f8b5750611f898184611637565b155b15611fb45760405163a9fbf51f60e01b81526001600160a01b038416600482015260240161061b565b8115611ffc5783856001600160a01b0316826001600160a01b03167f8c5be1e5ebec7d5bd14f71427d1e84f3dd0314c0f7b2291e5b200ac8c7c3b92560405160405180910390a45b505b5050600090815260046020526040902080546001600160a01b0319166001600160a01b0392909216919091179055565b612039838383611b88565b610e76576001600160a01b03831661206757604051637e27328960e01b81526004810182905260240161061b565b60405163177e802f60e01b81526001600160a01b03831660048201526024810182905260440161061b565b816000528060020b60045260246000fd5b6000826001600160a01b0316846001600160a01b031611156120c3579192915b60006120e6856001600160a01b0316856001600160a01b0316600160601b611bee565b9050611b1a61210884836120fa8989612b6e565b6001600160a01b0316611bee565b61221b565b6000826001600160a01b0316846001600160a01b0316111561212d579192915b611be661210883600160601b6120fa8888612b6e565b60008072184f03e93ff9f4daa797ed6e38ed64bf6a1f0160401b83106121825772184f03e93ff9f4daa797ed6e38ed64bf6a1f0160401b830492506040015b6d04ee2d6d415b85acef810000000083106121ae576d04ee2d6d415b85acef8100000000830492506020015b662386f26fc1000083106121cc57662386f26fc10000830492506010015b6305f5e10083106121e4576305f5e100830492506008015b61271083106121f857612710830492506004015b6064831061220a576064830492506002015b600a83106105255760010192915050565b806001600160801b038116811461223157600080fd5b919050565b6001600160e01b03198116811461224c57600080fd5b50565b60006020828403121561226157600080fd5b813561163081612236565b60005b8381101561228757818101518382015260200161226f565b50506000910152565b600081518084526122a881602086016020860161226c565b601f01601f19169290920160200192915050565b6020815260006116306020830184612290565b6000602082840312156122e157600080fd5b5035919050565b6001600160a01b038116811461224c57600080fd5b6000806040838503121561231057600080fd5b823561231b816122e8565b946020939093013593505050565b60008060006060848603121561233e57600080fd5b8335612349816122e8565b92506020840135612359816122e8565b929592945050506040919091013590565b600060e0828403121561237c57600080fd5b50919050565b634e487b7160e01b600052604160045260246000fd5b604051601f8201601f1916810167ffffffffffffffff811182821017156123c1576123c1612382565b604052919050565b600060208083850312156123dc57600080fd5b823567ffffffffffffffff808211156123f457600080fd5b818501915085601f83011261240857600080fd5b81358181111561241a5761241a612382565b8060051b915061242b848301612398565b818152918301840191848101908884111561244557600080fd5b938501935b838510156124635784358252938501939085019061244a565b98975050505050505050565b602080825282518282018190526000919060409081850190868401855b8281101561256857815180516001600160a01b0390811686528782015181168887015286820151168686015260608082015163ffffffff169086015260808082015162ffffff169086015260a0808201516001600160801b03169086015260c080820151600281900b82880152505060e08082015161250f8288018260020b9052565b5050610100818101516001600160801b038116878301525050610120818101516001600160801b03811687830152505061014081810151908601526101609081015190850152610180909301929085019060010161248c565b5091979650505050505050565b60006020828403121561258757600080fd5b8135611630816122e8565b600080604083850312156125a557600080fd5b8235915060208301356125b7816122e8565b809150509250929050565b6001600160a01b038d811682528c811660208301528b16604082015263ffffffff8a16606082015262ffffff891660808201526001600160801b03881660a0820152610180810161261860c083018960020b9052565b61262760e083018860020b9052565b6001600160801b0386166101008301526001600160801b03851661012083015261014082019390935261016001529a9950505050505050505050565b6000806000806060858703121561267957600080fd5b8435935060208501359250604085013567ffffffffffffffff8082111561269f57600080fd5b818701915087601f8301126126b357600080fd5b8135818111156126c257600080fd5b8860208285010111156126d457600080fd5b95989497505060200194505050565b801515811461224c57600080fd5b6000806040838503121561270457600080fd5b823561270f816122e8565b915060208301356125b7816126e3565b6000806000806080858703121561273557600080fd5b8435612740816122e8565b9350602085810135612751816122e8565b935060408601359250606086013567ffffffffffffffff8082111561277557600080fd5b818801915088601f83011261278957600080fd5b81358181111561279b5761279b612382565b6127ad601f8201601f19168501612398565b915080825289848285010111156127c357600080fd5b808484018584013760008482840101525080935050505092959194509250565b600080604083850312156127f657600080fd5b8235612801816122e8565b915060208301356125b7816122e8565b600181811c9082168061282557607f821691505b60208210810361237c57634e487b7160e01b600052602260045260246000fd5b803563ffffffff8116811461223157600080fd5b60006020828403121561286b57600080fd5b61163082612845565b6001600160a01b03938416815291909216602082015263ffffffff909116604082015260600190565b6000602082840312156128af57600080fd5b8151611630816122e8565b6000602082840312156128cc57600080fd5b81518060020b811461163057600080fd5b6001600160a01b03841681526001600160801b0383166020820152606060408201819052600090611b1a90830184612290565b6000806040838503121561292357600080fd5b505080516020909101519092909150565b634e487b7160e01b600052601160045260246000fd5b60006001600160b01b038281166002600160b01b0319810161296e5761296e612934565b6001019392505050565b80516001600160801b038116811461223157600080fd5b600080600080600060a086880312156129a757600080fd5b6129b086612978565b945060208601519350604086015192506129cc60608701612978565b91506129da60808701612978565b90509295509295909350565b6000602082840312156129f857600080fd5b815162ffffff8116811461163057600080fd5b8181038181111561052557610525612934565b6001600160801b03818116838216019080821115612a3e57612a3e612934565b5092915050565b60008060408385031215612a5857600080fd5b612a6183612978565b9150612a6f60208401612978565b90509250929050565b60008060008060808587031215612a8e57600080fd5b8435612a99816122e8565b93506020850135612aa9816122e8565b9250612ab760408601612845565b91506060850135612ac7816122e8565b939692955090935050565b600060208284031215612ae457600080fd5b8151611630816126e3565b60008351612b0181846020880161226c565b835190830190612b1581836020880161226c565b01949350505050565b6001600160a01b0385811682528416602082015260408101839052608060608201819052600090611b1790830184612290565b600060208284031215612b6357600080fd5b815161163081612236565b6001600160a01b03828116828216039080821115612a3e57612a3e61293456fea264697066735822122050894e6a753c4bc099c2565f1337be05ccd459beba23f76047ea11d52a03005c64736f6c63430008180033",
  "linkReferences": {},
  "deployedLinkReferences": {}
}