{
  "_format": "hh-sol-artifact-1",
  "contractName": "SwapRouter",
  "sourceName": "contracts/hardhat-uniswap/SwapRouter.sol",
  "abi": [
    {
      "inputs": [
        {
          "internalType": "address",
          "name": "_poolManager",
          "type": "address"
        }
      ],
      "stateMutability": "nonpayable",
      "type": "constructor"
    },
    {
      "anonymous": false,
      "inputs": [
        {
          "indexed": true,
          "internalType": "address",
          "name": "sender",
          "type": "address"
        },
        {
          "indexed": false,
          "internalType": "bool",
          "name": "zeroForOne",
          "type": "bool"
        },
        {
          "indexed": false,
          "internalType": "uint256",
          "name": "amountIn",
          "type": "uint256"
        },
        {
          "indexed": false,
          "internalType": "uint256",
          "name": "amountInRemaining",
          "type": "uint256"
        },
        {
          "indexed": false,
          "internalType": "uint256",
          "name": "amountOut",
          "type": "uint256"
        }
      ],
      "name": "Swap",
      "type": "event"
    },
    {
      "inputs": [
        {
          "components": [
            {
              "internalType": "address",
              "name": "tokenIn",
              "type": "address"
            },
            {
              "internalType": "address",
              "name": "tokenOut",
              "type": "address"
            },
            {
              "internalType": "uint32[]",
              "name": "indexPath",
              "type": "uint32[]"
            },
            {
              "internalType": "address",
              "name": "recipient",
              "type": "address"
            },
            {
              "internalType": "uint256",
              "name": "deadline",
              "type": "uint256"
            },
            {
              "internalType": "uint256",
              "name": "amountIn",
              "type": "uint256"
            },
            {
              "internalType": "uint256",
              "name": "amountOutMinimum",
              "type": "uint256"
            },
            {
              "internalType": "uint160",
              "name": "sqrtPriceLimitX96",
              "type": "uint160"
            }
          ],
          "internalType": "struct ISwapRouter.ExactInputParams",
          "name": "params",
          "type": "tuple"
        }
      ],
      "name": "exactInput",
      "outputs": [
        {
          "internalType": "uint256",
          "name": "amountOut",
          "type": "uint256"
        }
      ],
      "stateMutability": "payable",
      "type": "function"
    },
    {
      "inputs": [
        {
          "components": [
            {
              "internalType": "address",
              "name": "tokenIn",
              "type": "address"
            },
            {
              "internalType": "address",
              "name": "tokenOut",
              "type": "address"
            },
            {
              "internalType": "uint32[]",
              "name": "indexPath",
              "type": "uint32[]"
            },
            {
              "internalType": "address",
              "name": "recipient",
              "type": "address"
            },
            {
              "internalType": "uint256",
              "name": "deadline",
              "type": "uint256"
            },
            {
              "internalType": "uint256",
              "name": "amountOut",
              "type": "uint256"
            },
            {
              "internalType": "uint256",
              "name": "amountInMaximum",
              "type": "uint256"
            },
            {
              "internalType": "uint160",
              "name": "sqrtPriceLimitX96",
              "type": "uint160"
            }
          ],
          "internalType": "struct ISwapRouter.ExactOutputParams",
          "name": "params",
          "type": "tuple"
        }
      ],
      "name": "exactOutput",
      "outputs": [
        {
          "internalType": "uint256",
          "name": "amountIn",
          "type": "uint256"
        }
      ],
      "stateMutability": "payable",
      "type": "function"
    },
    {
      "inputs": [],
      "name": "poolManager",
      "outputs": [
        {
          "internalType": "contract IPoolManager",
          "name": "",
          "type": "address"
        }
      ],
      "stateMutability": "view",
      "type": "function"
    },
    {
      "inputs": [
        {
          "components": [
            {
              "internalType": "address",
              "name": "tokenIn",
              "type": "address"
            },
            {
              "internalType": "address",
              "name": "tokenOut",
              "type": "address"
            },
            {
              "internalType": "uint32[]",
              "name": "indexPath",
              "type": "uint32[]"
            },
            {
              "internalType": "uint256",
              "name": "amountIn",
              "type": "uint256"
            },
            {
              "internalType": "uint160",
              "name": "sqrtPriceLimitX96",
              "type": "uint160"
            }
          ],
          "internalType": "struct ISwapRouter.QuoteExactInputParams",
          "name": "params",
          "type": "tuple"
        }
      ],
      "name": "quoteExactInput",
      "outputs": [
        {
          "internalType": "uint256",
          "name": "amountOut",
          "type": "uint256"
        }
      ],
      "stateMutability": "nonpayable",
      "type": "function"
    },
    {
      "inputs": [
        {
          "components": [
            {
              "internalType": "address",
              "name": "tokenIn",
              "type": "address"
            },
            {
              "internalType": "address",
              "name": "tokenOut",
              "type": "address"
            },
            {
              "internalType": "uint32[]",
              "name": "indexPath",
              "type": "uint32[]"
            },
            {
              "internalType": "uint256",
              "name": "amountOut",
              "type": "uint256"
            },
            {
              "internalType": "uint160",
              "name": "sqrtPriceLimitX96",
              "type": "uint160"
            }
          ],
          "internalType": "struct ISwapRouter.QuoteExactOutputParams",
          "name": "params",
          "type": "tuple"
        }
      ],
      "name": "quoteExactOutput",
      "outputs": [
        {
          "internalType": "uint256",
          "name": "amountIn",
          "type": "uint256"
        }
      ],
      "stateMutability": "nonpayable",
      "type": "function"
    },
    {
      "inputs": [
        {
          "internalType": "int256",
          "name": "amount0Delta",
          "type": "int256"
        },
        {
          "internalType": "int256",
          "name": "amount1Delta",
          "type": "int256"
        },
        {
          "internalType": "bytes",
          "name": "data",
          "type": "bytes"
        }
      ],
      "name": "swapCallback",
      "outputs": [],
      "stateMutability": "nonpayable",
      "type": "function"
    }
  ],
  "bytecode": "0x608060405234801561001057600080fd5b5060405161137538038061137583398101604081905261002f91610054565b600080546001600160a01b0319166001600160a01b0392909216919091179055610084565b60006020828403121561006657600080fd5b81516001600160a01b038116811461007d57600080fd5b9392505050565b6112e2806100936000396000f3fe6080604052600436106100555760003560e01c80633439aade1461005a5780636c207ad01461008d578063a8a590fd146100a0578063ae5ab5e1146100b3578063dc4c90d3146100d3578063fa483e721461010b575b600080fd5b34801561006657600080fd5b5061007a610075366004610cf1565b61012d565b6040519081526020015b60405180910390f35b61007a61009b366004610d41565b6102a8565b61007a6100ae366004610d41565b61064d565b3480156100bf57600080fd5b5061007a6100ce366004610cf1565b61099f565b3480156100df57600080fd5b506000546100f3906001600160a01b031681565b6040516001600160a01b039091168152602001610084565b34801561011757600080fd5b5061012b610126366004610d76565b610a6d565b005b6040805161010081019091526000903090636c207ad090806101526020870187610e0e565b6001600160a01b031681526020018560200160208101906101739190610e0e565b6001600160a01b0316815260200161018e6040870187610e2b565b80806020026020016040519081016040528093929190818152602001838360200280828437600092018290525093855250505060208201526040016101d542610e10610e92565b8152606080870135602083015260006040830152016101fa60a0870160808801610e0e565b6001600160a01b03168152506040518263ffffffff1660e01b81526004016102229190610f6e565b6020604051808303816000875af192505050801561025d575060408051601f3d908101601f1916820190925261025a91810190610f81565b60015b6102a1573d80801561028b576040519150601f19603f3d011682016040523d82523d6000602084013e610290565b606091505b5061029a81610c42565b9392505050565b505b919050565b600060a0820135816102c06040850160208601610e0e565b6001600160a01b03166102d66020860186610e0e565b6001600160a01b031610905060005b6102f26040860186610e2b565b90508110156105ae57600080546001600160a01b03166371c54fc961031a6020890189610e0e565b61032a60408a0160208b01610e0e565b61033760408b018b610e2b565b8781811061034757610347610f9a565b905060200201602081019061035c9190610fc4565b6040518463ffffffff1660e01b815260040161037a93929190610fdf565b602060405180830381865afa158015610397573d6000803e3d6000fd5b505050506040513d601f19601f820116820180604052508101906103bb9190611008565b90506001600160a01b0381166104095760405162461bcd60e51b815260206004820152600e60248201526d141bdbdb081b9bdd08199bdd5b9960921b60448201526064015b60405180910390fd5b8060006104196020890189610e0e565b61042960408a0160208b01610e0e565b61043660408b018b610e2b565b8781811061044657610446610f9a565b905060200201602081019061045b9190610fc4565b600061046d60808d0160608e01610e0e565b6001600160a01b0316146104815733610484565b60005b600160405160200161049a959493929190611025565b60408051601f1981840301815291905290506000806001600160a01b03841663128acb086104ce60808d0160608e01610e0e565b898b8e60e00160208101906104e39190610e0e565b886040518663ffffffff1660e01b81526004016105049594939291906110ae565b60408051808303816000875af1158015610522573d6000803e3d6000fd5b505050506040513d601f19601f8201168201806040525081019061054691906110f4565b91509150866105555780610557565b815b6105619089611118565b975086610576576105718261112b565b61057f565b61057f8161112b565b610589908a610e92565b98508760000361059d5750505050506105ae565b5050600190930192506102e5915050565b508360c001358310156105f75760405162461bcd60e51b815260206004820152601160248201527014db1a5c1c1859d948195e18d959591959607a1b6044820152606401610400565b60408051821515815260a086013560208201529081018390526060810184905233907f176648f1f11cda284c124490086be42a926ddf0ae887ebe7b1d6b337d89427569060800160405180910390a25050919050565b600060a0820135816106656040850160208601610e0e565b6001600160a01b031661067b6020860186610e0e565b6001600160a01b031610905060005b6106976040860186610e2b565b905081101561095657600080546001600160a01b03166371c54fc96106bf6020890189610e0e565b6106cf60408a0160208b01610e0e565b6106dc60408b018b610e2b565b878181106106ec576106ec610f9a565b90506020020160208101906107019190610fc4565b6040518463ffffffff1660e01b815260040161071f93929190610fdf565b602060405180830381865afa15801561073c573d6000803e3d6000fd5b505050506040513d601f19601f820116820180604052508101906107609190611008565b90506001600160a01b0381166107a95760405162461bcd60e51b815260206004820152600e60248201526d141bdbdb081b9bdd08199bdd5b9960921b6044820152606401610400565b8060006107b96020890189610e0e565b6107c960408a0160208b01610e0e565b6107d660408b018b610e2b565b878181106107e6576107e6610f9a565b90506020020160208101906107fb9190610fc4565b600061080d60808d0160608e01610e0e565b6001600160a01b0316146108215733610824565b60005b600060405160200161083a959493929190611025565b60408051601f1981840301815291905290506000806001600160a01b03841663128acb0861086e60808d0160608e01610e0e565b896108788c61112b565b8e60e001602081019061088b9190610e0e565b886040518663ffffffff1660e01b81526004016108ac9594939291906110ae565b60408051808303816000875af11580156108ca573d6000803e3d6000fd5b505050506040513d601f19601f820116820180604052508101906108ee91906110f4565b9150915086610905576109008261112b565b61090e565b61090e8161112b565b6109189089611118565b9750866109255780610927565b815b610931908a610e92565b985087600003610945575050505050610956565b50506001909301925061068a915050565b508360c001358311156105f75760405162461bcd60e51b815260206004820152601160248201527014db1a5c1c1859d948195e18d959591959607a1b6044820152606401610400565b604080516101008101909152600090309063a8a590fd90806109c46020870187610e0e565b6001600160a01b031681526020018560200160208101906109e59190610e0e565b6001600160a01b03168152602001610a006040870187610e2b565b8080602002602001604051908101604052809392919081815260200183836020028082843760009201829052509385525050506020820152604001610a4742610e10610e92565b815260608087013560208301526000196040830152016101fa60a0870160808801610e0e565b600080808080610a7f86880188611155565b600080546040516371c54fc960e01b8152969b509499509297509095509350916001600160a01b03909116906371c54fc990610ac390899089908990600401610fdf565b602060405180830381865afa158015610ae0573d6000803e3d6000fd5b505050506040513d601f19601f82011682018060405250810190610b049190611008565b90506001600160a01b0381163314610b5e5760405162461bcd60e51b815260206004820152601760248201527f496e76616c69642063616c6c6261636b2063616c6c65720000000000000000006044820152606401610400565b60008060008c13610b78578a610b738d61112b565b610b82565b8b610b828c61112b565b90925090506001600160a01b038516610bb1578315610ba657604051818152602081fd5b604051828152602081fd5b8115610c34576040516323b872dd60e01b81526001600160a01b0386811660048301528481166024830152604482018490528916906323b872dd906064016020604051808303816000875af1158015610c0e573d6000803e3d6000fd5b505050506040513d601f19601f82011682018060405250810190610c3291906111c4565b505b505050505050505050505050565b60008151602014610cc557604482511015610c925760405162461bcd60e51b815260206004820152601060248201526f2ab732bc3832b1ba32b21032b93937b960811b6044820152606401610400565b60048201915081806020019051810190610cac91906111f7565b60405162461bcd60e51b81526004016104009190611299565b81806020019051810190610cd99190610f81565b92915050565b600060a082840312156102a157600080fd5b600060208284031215610d0357600080fd5b813567ffffffffffffffff811115610d1a57600080fd5b610d2684828501610cdf565b949350505050565b600061010082840312156102a157600080fd5b600060208284031215610d5357600080fd5b813567ffffffffffffffff811115610d6a57600080fd5b610d2684828501610d2e565b60008060008060608587031215610d8c57600080fd5b8435935060208501359250604085013567ffffffffffffffff80821115610db257600080fd5b818701915087601f830112610dc657600080fd5b813581811115610dd557600080fd5b886020828501011115610de757600080fd5b95989497505060200194505050565b6001600160a01b0381168114610e0b57600080fd5b50565b600060208284031215610e2057600080fd5b813561029a81610df6565b6000808335601e19843603018112610e4257600080fd5b83018035915067ffffffffffffffff821115610e5d57600080fd5b6020019150600581901b3603821315610e7557600080fd5b9250929050565b634e487b7160e01b600052601160045260246000fd5b80820180821115610cd957610cd9610e7c565b80516001600160a01b039081168352602080830151909116818401526040808301516101009185018290528051918501829052600092610120860192918101918491905b80831015610f0f57835163ffffffff168552938101939281019260019290920191610ee9565b505050506060830151610f2d60608601826001600160a01b03169052565b506080830151608085015260a083015160a085015260c083015160c085015260e0830151610f6660e08601826001600160a01b03169052565b509392505050565b60208152600061029a6020830184610ea5565b600060208284031215610f9357600080fd5b5051919050565b634e487b7160e01b600052603260045260246000fd5b803563ffffffff811681146102a357600080fd5b600060208284031215610fd657600080fd5b61029a82610fb0565b6001600160a01b03938416815291909216602082015263ffffffff909116604082015260600190565b60006020828403121561101a57600080fd5b815161029a81610df6565b6001600160a01b039586168152938516602085015263ffffffff9290921660408401529092166060820152901515608082015260a00190565b60005b83811015611079578181015183820152602001611061565b50506000910152565b6000815180845261109a81602086016020860161105e565b601f01601f19169290920160200192915050565b6001600160a01b0386811682528515156020830152604082018590528316606082015260a0608082018190526000906110e990830184611082565b979650505050505050565b6000806040838503121561110757600080fd5b505080516020909101519092909150565b81810381811115610cd957610cd9610e7c565b6000600160ff1b820161114057611140610e7c565b5060000390565b8015158114610e0b57600080fd5b600080600080600060a0868803121561116d57600080fd5b853561117881610df6565b9450602086013561118881610df6565b935061119660408701610fb0565b925060608601356111a681610df6565b915060808601356111b681611147565b809150509295509295909350565b6000602082840312156111d657600080fd5b815161029a81611147565b634e487b7160e01b600052604160045260246000fd5b60006020828403121561120957600080fd5b815167ffffffffffffffff8082111561122157600080fd5b818401915084601f83011261123557600080fd5b815181811115611247576112476111e1565b604051601f8201601f19908116603f0116810190838211818310171561126f5761126f6111e1565b8160405282815287602084870101111561128857600080fd5b6110e983602083016020880161105e565b60208152600061029a602083018461108256fea2646970667358221220f423cbb0247a3b43e5cfa53b0285d25324770f0b917f33be4bd5eb0ded9449ab64736f6c63430008180033",
  "linkReferences": {},
  "deployedLinkReferences": {}
}